{
  "transactions": [
    {
      "hash": "0xf217b597641ee45dc2d3c20279e3fe6662941ac692c6ac35b3f9be69fd6798f0",
      "transactionType": "CALL",
      "contractName": null,
      "contractAddress": "0xabbe7ced99e42d6729ea7f2e72b225e7157866d2",
      "function": "deployToken(string,string,uint256,address,uint256,uint256,uint256,uint256)",
      "arguments": [
        "",
        "",
        "1000000000",
        "0x000000000000000000000000000000000000007B",
        "0",
        "0",
        "0",
        "0"
      ],
      "transaction": {
        "from": "0xf39fd6e51aad88f6f4ce6ab8827279cfffb92266",
        "to": "0xabbe7ced99e42d6729ea7f2e72b225e7157866d2",
        "gas": "0x37fd6",
        "value": "0x0",
        "input": "0x76ed160f00000000000000000000000000000000000000000000000000000000000001000000000000000000000000000000000000000000000000000000000000000120000000000000000000000000000000000000000000000000000000003b9aca00000000000000000000000000000000000000000000000000000000000000007b000000000000000000000000000000000000000000000000000000000000000000000000000000000000000000000000000000000000000000000000000000000000000000000000000000000000000000000000000000000000000000000000000000000000000000000000000000000000000000000000000000000000000000000000000000000000000000000000000000000000000000000000000000000000000000000000000000000000000000000000000000000000000000000000",
        "nonce": "0x37d3",
        "chainId": "0xaa36a7"
      },
      "additionalContracts": [
        {
          "transactionType": "CREATE2",
          "address": "0x972489e03cc1c9ab8c43f94aff9d72648d3a6044",
          "initCode": "0x3d602d80600a3d3981f3363d3d373d3d3d363d73d74d14ebe305c93d023c966640788f05593f0fde5af43d82803e903d91602b57fd5bf3"
        }
      ],
      "isFixedGasLimit": false
    }
  ],
  "receipts": [
    {
      "status": "0x1",
      "cumulativeGasUsed": "0x2648a",
      "logs": [
        {
          "address": "0x972489e03cc1c9ab8c43f94aff9d72648d3a6044",
          "topics": [
            "0xddf252ad1be2c89b69c2b068fc378daa952ba7f163c4a11628f55a4df523b3ef",
            "0x0000000000000000000000000000000000000000000000000000000000000000",
            "0x000000000000000000000000abbe7ced99e42d6729ea7f2e72b225e7157866d2"
          ],
          "data": "0x000000000000000000000000000000000000000000000000000000003b9aca00",
          "blockHash": "0x954b04c93fae3ca671199d9f8ec106f14330664ef441e32966fcd08cb6427a4a",
          "blockNumber": "0x7288c4",
          "transactionHash": "0xf217b597641ee45dc2d3c20279e3fe6662941ac692c6ac35b3f9be69fd6798f0",
          "transactionIndex": "0x0",
          "logIndex": "0x0",
          "removed": false
        },
        {
          "address": "0x972489e03cc1c9ab8c43f94aff9d72648d3a6044",
          "topics": [
            "0xc7f505b2f371ae2175ee4913f4499e1f2633a7b5936321eed1cdaeb6115181d2"
          ],
          "data": "0x0000000000000000000000000000000000000000000000000000000000000001",
          "blockHash": "0x954b04c93fae3ca671199d9f8ec106f14330664ef441e32966fcd08cb6427a4a",
          "blockNumber": "0x7288c4",
          "transactionHash": "0xf217b597641ee45dc2d3c20279e3fe6662941ac692c6ac35b3f9be69fd6798f0",
          "transactionIndex": "0x0",
          "logIndex": "0x1",
          "removed": false
        },
        {
          "address": "0xabbe7ced99e42d6729ea7f2e72b225e7157866d2",
          "topics": [
            "0x06ab5c297216879d45a046a8b9949ceb77b6873099477e8a9a360a0ea7eca589",
            "0x000000000000000000000000972489e03cc1c9ab8c43f94aff9d72648d3a6044",
            "0x000000000000000000000000000000000000000000000000000000000000007b"
          ],
          "data": "0x000000000000000000000000000000000000000000000000000000000000008000000000000000000000000000000000000000000000000000000000000000a00000000000000000000000000000000000000000000000000000000000000000000000000000000000000000000000000000000000000000000000000000000000000000000000000000000000000000000000000000000000000000000000000000000000000000000000000000000000000000000000000000000000000000",
          "blockHash": "0x954b04c93fae3ca671199d9f8ec106f14330664ef441e32966fcd08cb6427a4a",
          "blockNumber": "0x7288c4",
          "transactionHash": "0xf217b597641ee45dc2d3c20279e3fe6662941ac692c6ac35b3f9be69fd6798f0",
          "transactionIndex": "0x0",
          "logIndex": "0x2",
          "removed": false
        }
      ],
      "logsBloom": "0x00000000000000000000040000000000000000000200000000000000000000000000000000000020000000000000000000000000000000000000200000000000000000000000000000000008000000000000020000000000000000000000000000000000822000001000000000000800000000000000008000000014000000000000000000000000000800000000000000000000000080000000001000001000000000000000000000000000000000000000008000000000000000000000000080000002000000000000000200000000000000000004000000200000000020000000000040000000000000000000000000000000000000000000000000020000",
      "type": "0x2",
      "transactionHash": "0xf217b597641ee45dc2d3c20279e3fe6662941ac692c6ac35b3f9be69fd6798f0",
      "transactionIndex": "0x0",
      "blockHash": "0x954b04c93fae3ca671199d9f8ec106f14330664ef441e32966fcd08cb6427a4a",
      "blockNumber": "0x7288c4",
      "gasUsed": "0x2648a",
      "effectiveGasPrice": "0xd826649",
      "from": "0xf39fd6e51aad88f6f4ce6ab8827279cfffb92266",
      "to": "0xabbe7ced99e42d6729ea7f2e72b225e7157866d2",
      "contractAddress": null
    }
  ],
  "libraries": [],
  "pending": [],
  "returns": {},
  "timestamp": 1737055676,
  "chain": 11155111,
  "commit": "b6ea715"
}