{
  "transactions": [
    {
      "hash": "0x1a7a04c5d3a63520b4bdb1d0695e714ffe443e401704f3a8d75d65335f76096a",
      "transactionType": "CALL",
      "contractName": null,
      "contractAddress": "0xabbe7ced99e42d6729ea7f2e72b225e7157866d2",
      "function": "deployToken(string,string,uint256,address,uint256,uint256,uint256,uint256)",
      "arguments": [
        "",
        "",
        "1000000000",
        "0x000000000000000000000000000000000000007B",
        "0",
        "0",
        "0",
        "0"
      ],
      "transaction": {
        "from": "0x50e193ac6d36d1424dd1e0ddb2d113953976f112",
        "to": "0xabbe7ced99e42d6729ea7f2e72b225e7157866d2",
        "gas": "0x37fd6",
        "value": "0x0",
        "input": "0x76ed160f00000000000000000000000000000000000000000000000000000000000001000000000000000000000000000000000000000000000000000000000000000120000000000000000000000000000000000000000000000000000000003b9aca00000000000000000000000000000000000000000000000000000000000000007b000000000000000000000000000000000000000000000000000000000000000000000000000000000000000000000000000000000000000000000000000000000000000000000000000000000000000000000000000000000000000000000000000000000000000000000000000000000000000000000000000000000000000000000000000000000000000000000000000000000000000000000000000000000000000000000000000000000000000000000000000000000000000000000000",
        "nonce": "0x2e7",
        "chainId": "0xaa36a7"
      },
      "additionalContracts": [
        {
          "transactionType": "CREATE2",
          "address": "0xd098f5d5c427412b475808015db9b7bb99e0353b",
          "initCode": "0x3d602d80600a3d3981f3363d3d373d3d3d363d73d74d14ebe305c93d023c966640788f05593f0fde5af43d82803e903d91602b57fd5bf3"
        }
      ],
      "isFixedGasLimit": false
    }
  ],
  "receipts": [
    {
      "status": "0x1",
      "cumulativeGasUsed": "0xcfc4c5",
      "logs": [
        {
          "address": "0xd098f5d5c427412b475808015db9b7bb99e0353b",
          "topics": [
            "0xddf252ad1be2c89b69c2b068fc378daa952ba7f163c4a11628f55a4df523b3ef",
            "0x0000000000000000000000000000000000000000000000000000000000000000",
            "0x000000000000000000000000abbe7ced99e42d6729ea7f2e72b225e7157866d2"
          ],
          "data": "0x000000000000000000000000000000000000000000000000000000003b9aca00",
          "blockHash": "0x60e9015ec45796831167757fcef5aded9a8148f8435c569f5a41cd7fb213627b",
          "blockNumber": "0x7288a4",
          "transactionHash": "0x1a7a04c5d3a63520b4bdb1d0695e714ffe443e401704f3a8d75d65335f76096a",
          "transactionIndex": "0x49",
          "logIndex": "0x73",
          "removed": false
        },
        {
          "address": "0xd098f5d5c427412b475808015db9b7bb99e0353b",
          "topics": [
            "0xc7f505b2f371ae2175ee4913f4499e1f2633a7b5936321eed1cdaeb6115181d2"
          ],
          "data": "0x0000000000000000000000000000000000000000000000000000000000000001",
          "blockHash": "0x60e9015ec45796831167757fcef5aded9a8148f8435c569f5a41cd7fb213627b",
          "blockNumber": "0x7288a4",
          "transactionHash": "0x1a7a04c5d3a63520b4bdb1d0695e714ffe443e401704f3a8d75d65335f76096a",
          "transactionIndex": "0x49",
          "logIndex": "0x74",
          "removed": false
        },
        {
          "address": "0xabbe7ced99e42d6729ea7f2e72b225e7157866d2",
          "topics": [
            "0x06ab5c297216879d45a046a8b9949ceb77b6873099477e8a9a360a0ea7eca589",
            "0x000000000000000000000000d098f5d5c427412b475808015db9b7bb99e0353b",
            "0x000000000000000000000000000000000000000000000000000000000000007b"
          ],
          "data": "0x000000000000000000000000000000000000000000000000000000000000008000000000000000000000000000000000000000000000000000000000000000a00000000000000000000000000000000000000000000000000000000000000000000000000000000000000000000000000000000000000000000000000000000000000000000000000000000000000000000000000000000000000000000000000000000000000000000000000000000000000000000000000000000000000000",
          "blockHash": "0x60e9015ec45796831167757fcef5aded9a8148f8435c569f5a41cd7fb213627b",
          "blockNumber": "0x7288a4",
          "transactionHash": "0x1a7a04c5d3a63520b4bdb1d0695e714ffe443e401704f3a8d75d65335f76096a",
          "transactionIndex": "0x49",
          "logIndex": "0x75",
          "removed": false
        }
      ],
      "logsBloom": "0x00000000000000000000040000000000000000000200000008000000000000000000000000000020000000000000000000000000000000000000200000000000000000000000000000000008000000000000020000000000000000000000001000000000822000000000000000000800000000000000008000000010000000000000000000000000000800000000000000000000000080000000000000001000000000000000000000000000000000000000008000000000000000000000000000000002000000000010000200000000000000000004000000000024000020000000000040000020000000000000000000000000000000000000000000000000",
      "type": "0x2",
      "transactionHash": "0x1a7a04c5d3a63520b4bdb1d0695e714ffe443e401704f3a8d75d65335f76096a",
      "transactionIndex": "0x49",
      "blockHash": "0x60e9015ec45796831167757fcef5aded9a8148f8435c569f5a41cd7fb213627b",
      "blockNumber": "0x7288a4",
      "gasUsed": "0x2648a",
      "effectiveGasPrice": "0x99cf3df",
      "blobGasUsed": "0x0",
      "from": "0x50e193ac6d36d1424dd1e0ddb2d113953976f112",
      "to": "0xabbe7ced99e42d6729ea7f2e72b225e7157866d2",
      "contractAddress": null
    }
  ],
  "libraries": [],
  "pending": [],
  "returns": {},
  "timestamp": 1737055311,
  "chain": 11155111,
  "commit": "b6ea715"
}